:0200000001609D
:02000B0001FAF8
:02001300215773
:1000600075816075580A75570375551E7559057564
:100070005101755300D2AFD2AAD28AD2BA756000AC
:100080007556FF7551017590FF7580FF75B00F753E
:10009000A0FF7F0A1202F9E5A054076008B402022B
:1000A00001A5B404D8B2900000AD55AA57E551B4EB
:1000B0000004AB5801C3E553B40004AB5801C3FBC3
:1000C0007551001200D81B7400B503011ABB000261
:1000D000AB58DDEFB290017DC0D0C0E001DE758984
:1000E00001758CD8758AF0D2AFD28CD2A9AE60BE21
:1000F00064FB756000D0E0D0D022C0D0C0E0AE601C
:100100000E8E60758CD8758AF0EE5401F556701A13
:100110007CFDC2A6D2A78C80C2A7900319EB93D214
:10012000A6758000F580E556701A7CFE900319EAEA
:1001300093C2A6D2A78C80C2A7D2A6758000F580F4
:10014000E55670CCBE640BC2A6C2ABC28EC2AF7500
:100150008900D0E0D0D032B2977554037553007542
:10016000551EE5B0540F640F70F8C0D0C0E0D2D374
:10017000C28A790075B0FFC2B4E5B0540F640F6055
:100180001651F9E5B0540F640F600C00000000E553
:10019000B0540F640F70F875B0FFC2B5E5B0540FDE
:0201A000640FEA
:1001A200605551F9E5B0540F640F604BB40113B9B7
:1001B2000009755407B290790121F175530779004E
:1001C20021F1B40211B90007755404790121F175C6
:1001D2005304790021F1B40411B90007755401796F
:1001E2000121F1755301790021F1B4080241C7E5FB
:1001F200B0540F640F70F875B0FFC2B6E5B0540F7B
:10020200640F606051F9E5B0540F640F6056B40199
:1002120011B900077554087901415E7553087900D8
:10022200415EB40211B900077554057901415E754A
:1002320053057900415EB40411B90007755402797F
:1002420001415E7553027900415EB408A2B900070C
:100252007554007901415E7553007900E5B0540F81
:10026200640F70F875B0FFC2B7E5B0540F640F6049
:100272005251F9E5B0540F640F6048B40111B9004E
:1002820007755409790141BD755309790041BDB41F
:100292000211B90007755406790141BD75530679FB
:1002A2000041BDB40411B90007755403790141BD81
:1002B200755303790041BDB4080100E5B0540F64E1
:1002C2000F70F82174B297E5B0540F640F70F8E51F
:1002D2005475F00AA42553F552C2D3D0E0D0D0858C
:1002E2005457AC53BC000585525541F3055785520E
:0B02F20055D28A75B00F327E0A7FF8EB
:1002FD00DFFEDEFA22C0D0C0E0D2D379287A0A0020
:10030D0000D9FC7928DAF8D0E0D0D022003F065B86
:07031D004F666D7D077F6F45
:00000001FF
