:0200000001609D
:02000B0001F9F9
:02001300215674
:1000600075816075580A75570375551E7559057564
:100070005101755300D2AFD2AAD28AD2BA756000AC
:100080007556FF7551017590FF7580FF75B00F753E
:10009000A0FFE5A05407FF700B54057007EF540351
:1000A0007002017DB2900000AD55AA57E551B40031
:1000B00004AB5801C2E553B40004AB5801C2FB7550
:1000C00051001200D71B7400B503011ABB0002AB2C
:1000D00058DDEFB290017DC0D0C0E001DD7589012F
:1000E000758CD8758AF0D2AFD28CD2A9AE60BE64BE
:1000F000FB756000D0E0D0D022C0D0C0E0AE600E72
:100100008E60758CD8758AF0EE5401F556701A7CA5
:10011000FDC2A6D2A78C80C2A7900318EB93D2A6EB
:10012000758000F580E556701A7CFE900318EA93FE
:10013000C2A6D2A78C80C2A7D2A6758000F580E5A2
:100140005670CCBE640BC2A6C2ABC28EC2AF75895C
:1001500000D0E0D0D032B297755403755300755576
:100160001EE5B0540F640F70F8C0D0C0E0D2D3C207
:100170008A790075B0FFC2B4E5B0540F640F601601
:1001800051F8E5B0540F640F600C00000000E5B0BA
:0D019000540F640F70F875B0FFC2B5E5B0F4
:10019D00540F640F605551F8E5B0540F640F604B68
:1001AD00B40113B90009755407B290790121F075A6
:1001BD005307790021F0B40211B900077554047981
:1001CD000121F0755304790021F0B40411B9000731
:1001DD00755401790121F0755301790021F0B408AE
:1001ED000241C6E5B0540F640F70F875B0FFC2B68A
:1001FD00E5B0540F640F606051F8E5B0540F640F13
:10020D006056B40111B900077554087901415D7547
:10021D0053087900415DB40211B900077554057991
:10022D0001415D7553057900415DB40411B90007B5
:10023D007554027901415D7553027900415DB40831
:10024D00A2B900077554007901415D75530079001D
:10025D00E5B0540F640F70F875B0FFC2B7E5B05438
:10026D000F640F605251F8E5B0540F640F6048B43D
:10027D000111B90007755409790141BC755309790C
:10028D000041BCB40211B90007755406790141BC97
:10029D00755306790041BCB40411B90007755403B8
:1002AD00790141BC755303790041BCB4080100E5E7
:1002BD00B0540F640F70F82173B297E5B0540F640A
:1002CD000F70F8E55475F00AA42553F552C2D3D03A
:1002DD00E0D0D0855457AC53BC000585525541F242
:0B02ED000557855255D28A75B00F32BC
:1002F8007E0A7FF8DFFEDEFA22C0D0C0E0D2D379D2
:10030800287A0A0000D9FC7928DAF8D0E0D0D0227F
:0B031800003F065B4F666D7D077F6FA6
:00000001FF
