:0200000001609D
:02000B002127AB
:02001300218248
:1000600075816075580A75570375551E7559057564
:100070005101755300D2AFD2AAD28AD2BA756000AC
:100080007556FF7551017590FF75800075B00F753D
:10009000A0FFE5A05407B4010201A3B4030201A329
:1000A000B405DAB2900000AD55AA57E551B400048A
:1000B000AB5801C1E553B40004AB5801C1FB755105
:1000C00000120111758000E5A05407B40109C28C2B
:1000D000C2A975510101A3B40309C28CC2A975510B
:1000E0000101A3B40509C28CC2A975510101A31B6A
:1000F0007400B503011ABB0002AB58DDC4B290C254
:10010000A6D2A7758000C2A7D2A6758000C2A6019C
:100110007D758901758CD8758AF0D28CD2A9AE60B4
:10012000BE64FB75600022C0D0C0E0AE600E8E6081
:10013000758CD8758AF0EE5401F556701A7CFDC2A4
:10014000A6D2A78C80C2A790036CEB93D2A6758031
:1001500000F580E556701A7CFE90036CEA93C2A607
:10016000D2A78C80C2A7D2A6758000F580E5567014
:10017000CCBE6409C2A6C28CC2A9758900D0E0D0E9
:10018000D032B29775540375530075551EE5B054BF
:100190000F640F70F8C0D0C0E0D2D3C28A79007566
:0E01A000B0FFC2B4E5B0540F640F6016714C8E
:1001AE00E5B0540F640F600C00000000E5B0540F72
:1001BE00640F70F875B0FFC2B5E5B0540F640F60F0
:1001CE0055714CE5B0540F640F604BB40113B90078
:1001DE0009755407B2907901411C75530779004196
:1001EE001CB40211B900077554047901411C7553F2
:1001FE00047900411CB40411B9000775540179014A
:10020E00411C7553017900411CB408026117E5B019
:10021E00540F640F70F875B0FFC2B6E5B0540F649A
:10022E000F6060714CE5B0540F640F6056B401114D
:10023E00B900077554087901418975530879004151
:10024E0089B40211B90007755405790141897553B6
:10025E000579004189B40411B9000775540279017A
:10026E00418975530279004189B408A2B900077516
:10027E005400790141897553007900E5B0540F643B
:10028E000F70F875B0FFC2B7E5B0540F640F60522F
:10029E00714CE5B0540F640F6048B40111B90007FA
:1002AE00755409790141E8755309790041E8B402A2
:1002BE0011B90007755406790141E87553067900A6
:1002CE0041E8B40411B90007755403790141E8758A
:1002DE005303790041E8B4080100E5B0540F640FF0
:1002EE0070F8C2A6D2A77580FE714CC2A7D2A69096
:0502FE00036CE9600A39
:10030300E5540493F580714C6115E5530493F5802E
:10031300714C219FB297E5B0540F640F70F8E55408
:1003230075F00AA42553F552C2D3D0E0D0D085543A
:1003330057AC53BC0005855255614305578552554B
:10034300755101D28A75B00F327E0A7FF8DFFEDE67
:10035300FA22C0D0C0E0D2D379287A0A0000D9FCAF
:100363007928DAF8D0E0D0D022003F065B4F666DE3
:040373007D077F6F14
:00000001FF
