:0200000001609D
:02000B00212DA5
:02001300218842
:1000600075816075580A75570375551E7559057564
:100070005101755300D2AFD2AAD28AD2BA756000AC
:100080007556FF7551017590FF75800075B0FFC200
:10009000B775A0FFD28AE5A05407B4010201A7B446
:1000A000030201A7B405D6B2900000AD55AA57E5EA
:1000B00051B40004AB5801C5E553B40004AB58017A
:1000C000C5FB755100120117D28A758000E5A05456
:1000D00007B40109C28CC2A975510101A7B4030973
:1000E000C28CC2A975510101A7B40509C28CC2A96D
:1000F00075510101A71B7400B503011ABB0002ABC7
:1001000058DDC2B290C2A6D2A7758000C2A7D2A6FF
:10011000758000C2A6017D758901758CD8758AF03D
:10012000D28CD2A9AE60BE64FB75600022C0D0C084
:10013000E0AE600E8E60758CD8758AF0EE5401F5D5
:1001400056701A7CFDC2A6D2A78C80C2A7900372FB
:10015000EB93D2A6758000F580E556701A7CFE9070
:100160000372EA93C2A6D2A78C80C2A7D2A67580DA
:1001700000F580E55670CCBE6409C2A6C28CC2A947
:10018000758900D0E0D0D032B29775540375530012
:1001900075551EE5B0540F640F70F8C0D0C0E0D2A2
:0E01A000D3C28A790075B0FFC2B4E5B0540F27
:1001AE00640F60167152E5B0540F640F600C0000BE
:1001BE000000E5B0540F640F70F875B0FFC2B5E5DE
:1001CE00B0540F640F60557152E5B0540F640F6058
:1001DE004BB40113B90009755407B290790141224D
:1001EE0075530779004122B40211B9000775540402
:1001FE007901412275530479004122B40411B900EA
:10020E00077554017901412275530179004122B4D9
:10021E000802611DE5B0540F640F70F875B0FFC28F
:10022E00B6E5B0540F640F60607152E5B0540F64C0
:10023E000F6056B40111B900077554087901418F4A
:10024E007553087900418FB40211B9000775540532
:10025E007901418F7553057900418FB40411B900AE
:10026E00077554027901418F7553027900418FB49D
:10027E0008A2B900077554007901418F75530079B2
:10028E0000E5B0540F640F70F875B0FFC2B7E5B05B
:10029E00540F640F60527152E5B0540F640F6048F2
:1002AE00B40111B90007755409790141EE7553096E
:1002BE00790041EEB40211B9000775540679014177
:1002CE00EE755306790041EEB40411B9000775546A
:1002DE0003790141EE755303790041EEB408010034
:1002EE00E5B0540F640F70F8C2A6D2A77580FE71E8
:0502FE0052C2A7D2A6C8
:10030300900372E9600AE5540493F5807152611B0E
:10031300E5530493F580715221A5B297E5B0540FCC
:10032300640F70F8E55475F00AA42553F552C2D34F
:10033300D0E0D0D0855457AC53BC000585525561ED
:1003430049055785525575510175B0FFC2B7327EC5
:100353000A7FF8DFFEDEFA22C0D0C0E0D2D37928CC
:100363007A0A0000D9FC7928DAF8D0E0D0D022004C
:0A0373003F065B4F666D7D077F6F4C
:00000001FF
