:0200000001609D
:02000B002115BD
:02001300217258
:1000600075816075580A75570375551E7559057564
:100070005101755300D2AFD2AAD28AD2BA756000AC
:100080007556FF7551017590FF7580FF75B00F753E
:10009000A0FF7F0A120339E5A05407B4010201A8AA
:1000A000B4030201A8B405D5B2900000AD55AA571B
:1000B000E551B40004AB5801C6E553B40004AB5895
:1000C00001C6FB7551001200FD758000E5A05407C4
:1000D000B40106C28CC2A901A8B40306C28CC2A98D
:1000E00001A8B40506C28CC2A901A81B7400B503FF
:1000F000011ABB0002AB58DDCDB290017D758901BC
:10010000758CD8758AF0D2AFD28CD2A9AE60BE649D
:10011000FB75600022C0D0C0E0AE600E8E60758CB2
:10012000D8758AF0EE5401F556701A7CFDC2A6D23D
:10013000A78C80C2A7900359EB93D2A6758000F5D7
:1001400080E556701A7CFE900359EA93C2A6D2A7A6
:100150008C80C2A7D2A6758000F580E55670CCBE13
:10016000640BC2A6C2ABC28EC2AF758900D0E0D00C
:10017000D032B29775540375530075551EE5B054CF
:100180000F640F70F8C0D0C0E0D2D3C28A79007576
:10019000B0FFC2B4E5B0540F640F60167139E5B01A
:0801A000540F640F600C000015
:1001A8000000E5B0540F640F70F875B0FFC2B5E5F4
:1001B800B0540F640F60557139E5B0540F640F6087
:1001C8004BB40113B90009755407B2907901410C79
:1001D8007553077900410CB40211B900077554042E
:1001E8007901410C7553047900410CB40411B9002C
:1001F800077554017901410C7553017900410CB41C
:1002080008026107E5B0540F640F70F875B0FFC2BB
:10021800B6E5B0540F640F60607139E5B0540F64EF
:100228000F6056B40111B900077554087901417976
:1002380075530879004179B40211B900077554055E
:100248007901417975530579004179B40411B900F0
:10025800077554027901417975530279004179B4DF
:1002680008A2B900077554007901417975530079DE
:1002780000E5B0540F640F70F875B0FFC2B7E5B071
:10028800540F640F60527139E5B0540F640F604821
:10029800B40111B90007755409790141D87553099A
:1002A800790041D8B40211B90007755406790141A3
:1002B800D8755306790041D8B40411B900077554AC
:1002C80003790141D8755303790041D8B408010076
:1002D800E5B0540F640F70F8C2A6D2A77580FE71FE
:1002E80039C2A7D2A6900359E9600AE5540493F5E8
:0502F800807139610571
:1002FD00E5530493F5807139218FB297E5B0540F12
:10030D00640F70F8E55475F00AA42553F552C2D365
:10031D00D0E0D0D0855457AC53BC00058552556103
:10032D00330557855255D28A75B00F327E0A7FF844
:10033D00DFFEDEFA22C0D0C0E0D2D379287A0A00DF
:10034D0000D9FC7928DAF8D0E0D0D022003F065B46
:07035D004F666D7D077F6F05
:00000001FF
