:0200000001609D
:02000B00211EB4
:02001300217951
:1000600075816075580A75570375551E7559057564
:100070005101755300D2AFD2AAD28AD2BA756000AC
:100080007556FF7551017590FF75800075B00F753D
:10009000A0FFE5A05407B4010201A3B4030201A329
:1000A000B405DAB2900000AD55AA57E551B400048A
:1000B000AB5801C1E553B40004AB5801C1FB755105
:1000C00000120108758000E5A05407B40106C28C37
:1000D000C2A901A3B40306C28CC2A901A3B4050638
:1000E000C28CC2A901A31B7400B503011ABB000294
:1000F000AB58DDCDB290C2A6D2A7758000C2A7D200
:10010000A6758000C2A6017D758901758CD8758A97
:10011000F0D28CD2A9AE60BE64FB75600022C0D064
:10012000C0E0AE600E8E60758CD8758AF0EE54011A
:10013000F556701A7CFDC2A6D2A78C80C2A7900388
:1001400060EB93D2A6758000F580E556701A7CFEB0
:10015000900360EA93C2A6D2A78C80C2A7D2A675EC
:100160008000F580E55670CCBE6409C2A6C28CC280
:10017000A9758900D0E0D0D032B297755403755379
:100180000075551EE5B0540F640F70F8C0D0C0E084
:10019000D2D3C28A790075B0FFC2B4E5B0540F64FF
:0B01A0000F60167140E5B0540F640FB3
:1001AB00600C00000000E5B0540F640F70F875B0E0
:1001BB00FFC2B5E5B0540F640F60557140E5B05404
:1001CB000F640F604BB40113B90009755407B2905B
:1001DB007901411375530779004113B40211B9002A
:1001EB00077554047901411375530479004113B415
:1001FB000411B90007755401790141137553017945
:10020B00004113B40802610EE5B0540F640F70F88F
:10021B0075B0FFC2B6E5B0540F640F60607140E576
:10022B00B0540F640F6056B40111B9000775540830
:10023B007901418075530879004180B40211B900EE
:10024B00077554057901418075530579004180B4D8
:10025B000411B90007755402790141807553027975
:10026B00004180B408A2B9000775540079014180A0
:10027B007553007900E5B0540F640F70F875B0FF3B
:10028B00C2B7E5B0540F640F60527140E5B0540F24
:10029B00640F6048B40111B9000775540979014125
:1002AB00DF755309790041DFB40211B900077554AA
:1002BB0006790141DF755306790041DFB40411B9AA
:1002CB000007755403790141DF755303790041DF52
:1002DB00B4080100E5B0540F640F70F8C2A6D2A7A2
:1002EB007580FE7140C2A7D2A6900360E9600AE553
:0302FB0054049315
:1002FE00F5807140610CE5530493F58071402196B1
:10030E00B297E5B0540F640F70F8E55475F00AA477
:10031E002553F552C2D3D0E0D0D0855457AC53BC40
:10032E000005855255613A0557855255D28A75B0EA
:10033E000F327E0A7FF8DFFEDEFA22C0D0C0E0D296
:10034E00D379287A0A0000D9FC7928DAF8D0E0D0DF
:0D035E00D022003F065B4F666D7D077F6F6C
:00000001FF
