:0200000001609D
:02000B0001BC36
:1000600075816075030275590375580A75600075CE
:1000700057027560007556057556FF7590FF7580BF
:10008000FF75A0FFE5A05407FF700B54057007EF44
:10009000540370020160B2900000E55790014C9348
:1000A000FDAA58AB591201130BE559240AB50301F7
:1000B0000ABB0D027B03DDEDB2900160C0D0C0E051
:1000C000AE600E8E60758CD8758AF0EE5401F556D0
:1000D00070177CFDC2A6D2A78C80C2A790014CEB02
:1000E00093D2A6F580E55670177CFE90014CEA93FA
:1000F000C2A6D2A78C80C2A7D2A6F580E55670D240
:10010000BE640BC2A6C2ABC28EC2AF758900D0E07E
:10011000D0D032C0D0C0E02119758901758CD87556
:100120008AF0D2AFD28CD2A9AE60BE64FB756000FB
:10013000D0E0D0D022C0D0C0E0D2D379287A0A0053
:1001400000D9FC7928DAF8D0E0D0D0220A141E6F4A
:090150007F077D6D664F5B063FE1
:00000001FF
