:0200000001609D
:02000B0001DC16
:02001300213991
:1000600075816075580A75570375551E755905D207
:10007000AFD2AAD28AD2BA7560007556FF7590FFCA
:100080007580FF75B00F75A0FFE5A05407FF700BDA
:1000900054057007EF540370020177B2900000AD71
:1000A00055AA57AB581200BA1B7400B503011ABB0E
:1000B0000002AB58DDEFB2900177C0D0C0E001C0C4
:1000C000758901758CD8758AF0D2AFD28CD2A9AE61
:1000D00060BE64FB756000D0E0D0D022C0D0C0E02C
:1000E000AE600E8E60758CD8758AF0EE5401F556B0
:1000F000701A7CFDC2A6D2A78C80C2A79002EDEB3D
:1001000093D2A6758000F580E556701A7CFE9002A9
:10011000EDEA93C2A6D2A78C80C2A7D2A6758000B2
:10012000F580E55670CCBE640BC2A6C2ABC28EC2CF
:10013000AF758900D0E0D0D032B2977554037553B3
:1001400005755523E5B0540F640F70F8C0D0C0E0BA
:10015000D2D3C28A790075B0FFC2B4E5B0540F643F
:100160000F601651CDE5B0540F640F600C00000015
:1001700000E5B0540F640F70F875B0FFC2B5E5B07C
:10018000540F640F605551CDE5B0540F640F604BB0
:0B019000B40113B90009755407B290C8
:10019B00790121D3755307790021D3B40211B9002A
:1001AB0007755404790121D3755304790021D3B415
:1001BB000411B90007755401790121D375530179E5
:1001CB000021D3B4080241A9E5B0540F640F70F8B5
:1001DB0075B0FFC2B7E5B0540F640F606051CDE549
:1001EB00B0540F640F6056B40111B9000775540871
:1001FB007901414075530879004140B40211B900AF
:10020B00077554057901414075530579004140B498
:10021B000411B900077554027901414075530279F5
:10022B00004140B408A2B900077554007901414060
:10023B007553007900E5B0540F640F70F875B0FF7B
:10024B00C2B6E5B0540F640F605251CDE5B0540FF8
:10025B00640F6048B40111B9000775540979014165
:10026B009F7553097900419FB40211B9000775546A
:10027B00067901419F7553067900419FB40411B96A
:10028B0000077554037901419F7553037900419F12
:10029B00B4080100E5B0540F640F70F82156B29703
:1002AB00E5B0540F640F70F8E55475F00AA4F552DD
:1002BB00C2D3D0E0D0D0855457855255D28A75B071
:1002CB000F327E0A7FF8DFFEDEFA22C0D0C0E0D20A
:1002DB00D379287A0A0000D9FC7928DAF8D0E0D053
:0D02EB00D022003F065B4F666D7D077F6FE0
:00000001FF
