:0200000001609D
:02000B0001B939
:02001300213892
:1000600075816075590375580A756000755702757A
:1000700060007555057556FF7590FF7580FF75A07A
:10008000FFE5A05407FF700B54057007EF54037091
:10009000020160B2900000E5579002D793FDAA5884
:1000A000AB591201160BE559240AB503010ABB0D21
:1000B00002AB59DDEDB2900160C0D0C0E0AE600E81
:1000C0008E60758CD8758AF0EE5401F556701A7CE6
:1000D000FDC2A6D2A78C80C2A79002D7EB93D2A66E
:1000E000758000F580E556701A7CFE9002D7EA9381
:1000F000C2A6D2A78C80C2A7D2A6758000F580E5E3
:100100005670CCBE640BC2A6C2ABC28EC2AF75899C
:1001100000D0E0D0D032C0D0C0E0211C758901757C
:100120008CD8758AF0D2AFD28CD2A9AE60BE64FBF7
:10013000756000D0E0D0D022B291E5B0540F640FCA
:1001400070F8C0D0C0E0D2D3C28A790075B0FFC2C7
:10015000B4E5B0540F640F601651B7E5B0540F64A6
:100160000F600C00000000E5B0540F640F70F875CC
:10017000B0FFC2B5E5B0540F640F605551B7E5B09C
:10018000540F640F604BB40113B90009755007B2E6
:0801900090790121C9754907AE
:10019800790021C9B40211B9000775500479012109
:1001A800C9754904790021C9B40411B9000775500B
:1001B80001790121C9754901790021C9B4080241B1
:1001C8009FE5B0540F640F70F875B0FFC2B7E5B083
:1001D800540F640F606051B7E5B0540F640F605658
:1001E800B40111B9000775500879014136754908FD
:1001F80079004136B40211B90007755005790141FB
:100208003675490579004136B40411B900077550AF
:10021800027901413675490279004136B408A2B91C
:100228000007755000790141367549007900E5B03D
:10023800540F640F70F875B0FFC2B6E5B0540F6480
:100248000F605251B7E5B0540F640F6048B4011104
:10025800B900077550097901419575490979004137
:1002680095B40211B9000775500679014195754991
:100278000679004195B40411B90007755003790156
:10028800419575490379004195B4080100E5B054DA
:100298000F640F70F8214CB290B291E5B0540F641E
:1002A8000F70F8C2D3D0E0D0D0D28A75B00F327EAA
:1002B8000A7FF8DFFEDEFA22C0D0C0E0D2D3792868
:1002C8007A0A0000D9FC7928DAF8D0E0D0D0220ADE
:0C02D800141E6F7F077D6D664F5B063FB4
:00000001FF
