:0200000001609D
:02000B0001FDF5
:02001300215A70
:1000600075816075580A75570375551E7559057564
:100070005101755300D2AFD2AAD28AD2BA756000AC
:100080007556FF7551017590FF7580FF75B00F753E
:10009000A0FF7F0A1202FCE5A05407B4010201A8E8
:1000A000B4030201A8B405D5B2900000AD55AA571B
:1000B000E551B40004AB5801C6E553B40004AB5895
:1000C00001C6FB7551001200DB1B7400B503011A59
:1000D000BB0002AB58DDEFB290017DC0D0C0E001A3
:1000E000E1758901758CD8758AF0D2AFD28CD2A90E
:1000F000AE60BE64FB756000D0E0D0D022C0D0C03E
:10010000E0AE600E8E60758CD8758AF0EE5401F505
:1001100056701A7CFDC2A6D2A78C80C2A790031C81
:10012000EB93D2A6758000F580E556701A7CFE90A0
:10013000031CEA93C2A6D2A78C80C2A7D2A6758060
:1001400000F580E55670CCBE640BC2A6C2ABC28E71
:10015000C2AF758900D0E0D0D032B2977554037524
:10016000530075551EE5B0540F640F70F8C0D0C031
:10017000E0D2D3C28A790075B0FFC2B4E5B0540FA3
:10018000640F601651FCE5B0540F640F600C000062
:100190000000E5B0540F640F70F875B0FFC2B5E50C
:0301A000B0540F49
:1001A300640F605551FCE5B0540F640F604BB4010C
:1001B30013B90009755407B290790121F4755307F7
:1001C300790021F4B40211B90007755404790121AF
:1001D300F4755304790021F4B40411B9000775547C
:1001E30001790121F4755301790021F4B408024126
:1001F300CAE5B0540F640F70F875B0FFC2B6E5B02E
:10020300540F640F606051FCE5B0540F640F6056E7
:10021300B40111B900077554087901416175530898
:1002230079004161B40211B90007755405790141A0
:100233006175530579004161B40411B90007755420
:10024300027901416175530279004161B408A2B991
:100253000007755400790141617553007900E5B0D9
:10026300540F640F70F875B0FFC2B7E5B0540F6454
:100273000F605251FCE5B0540F640F6048B4011194
:10028300B90007755409790141C0755309790041D3
:10029300C0B40211B90007755406790141C0755302
:1002A30006790041C0B40411B900077554037901FC
:1002B30041C0755303790041C0B4080100E5B0544F
:1002C3000F640F70F82177B297E5B0540F640F7085
:1002D300F8E55475F00AA42553F552C2D3D0E0D003
:1002E300D0855457AC53BC000585525541F605578C
:0B02F300855255D28A75B00F327E0A8A
:1002FE007FF8DFFEDEFA22C0D0C0E0D2D379287AB2
:10030E000A0000D9FC7928DAF8D0E0D0D022003FDC
:09031E00065B4F666D7D077F6FE1
:00000001FF
